{"contracts/USDCGovernance.sol":{"USDCGovernanceFeeDistributor":{"abi":[{"inputs":[{"internalType":"address","name":"_mountainSharesToken","type":"address"}],"stateMutability":"nonpayable","type":"constructor"},{"inputs":[],"name":"COMMUNITY_PROGRAMS","outputs":[{"internalType":"address","name":"","type":"address"}],"stateMutability":"view","type":"function"},{"inputs":[],"name":"DEVELOPMENT","outputs":[{"internalType":"address","name":"","type":"address"}],"stateMutability":"view","type":"function"},{"inputs":[],"name":"GOVERNANCE","outputs":[{"internalType":"address","name":"","type":"address"}],"stateMutability":"view","type":"function"},{"inputs":[],"name":"HARMONY_FOR_HOPE","outputs":[{"internalType":"address","name":"","type":"address"}],"stateMutability":"view","type":"function"},{"inputs":[],"name":"TREASURY","outputs":[{"internalType":"address","name":"","type":"address"}],"stateMutability":"view","type":"function"},{"inputs":[],"name":"USDC","outputs":[{"internalType":"address","name":"","type":"address"}],"stateMutability":"view","type":"function"},{"inputs":[],"name":"mountainSharesToken","outputs":[{"internalType":"address","name":"","type":"address"}],"stateMutability":"view","type":"function"},{"inputs":[],"name":"owner","outputs":[{"internalType":"address","name":"","type":"address"}],"stateMutability":"view","type":"function"},{"inputs":[{"internalType":"address","name":"customer","type":"address"},{"internalType":"uint256","name":"tokenAmount","type":"uint256"},{"internalType":"uint256","name":"governanceFeeUSDC","type":"uint256"}],"name":"processPayment","outputs":[],"stateMutability":"nonpayable","type":"function"}],"evm":{"bytecode":{"linkReferences":{},"object":"60a0604052348015600f57600080fd5b50604051610a24380380610a24833981016040819052602c91604e565b6001600160a01b0316608052600080546001600160a01b03191633179055607c565b600060208284031215605f57600080fd5b81516001600160a01b0381168114607557600080fd5b9392505050565b60805161098661009e60003960008181610125015261030901526109866000f3fe608060405234801561001057600080fd5b50600436106100935760003560e01c806366c9c3841161006657806366c9c3841461012057806389a30271146101475780638da5cb5b14610162578063bc56d5b414610175578063e2d1e5701461018a57600080fd5b80630a1234b51461009857806314627834146100cf5780632d2c5565146100ea578063661e7ac414610105575b600080fd5b6100b373f8c739a101e53f6fe4e24df768be833ceecefa8481565b6040516001600160a01b03909116815260200160405180910390f35b6100b3738c09e686bdfd283bdf5f6fffc780e62a695014f381565b6100b3732b686a6c1c4b40ffc748b56b6c7a06c49e36116781565b6100b373d8bb25076e61b5a382e17171b48d8e0952b5b4f381565b6100b37f000000000000000000000000000000000000000000000000000000000000000081565b6100b373af88d065e77c8cc2239327c5edb3a432268e583181565b6000546100b3906001600160a01b031681565b610188610183366004610893565b6101a5565b005b6100b373de75f5168e33db23fa5601b5fc88545be7b287a481565b6000546001600160a01b031633146101f05760405162461bcd60e51b81526020600482015260096024820152682737ba1037bbb732b960b91b60448201526064015b60405180910390fd5b6040513360248201523060448201526064810182905260009073af88d065e77c8cc2239327c5edb3a432268e58319060840160408051601f198184030181529181526020820180516001600160e01b03166323b872dd60e01b1790525161025791906108d4565b6000604051808303816000865af19150503d8060008114610294576040519150601f19603f3d011682016040523d82523d6000602084013e610299565b606091505b50509050806102e15760405162461bcd60e51b81526020600482015260146024820152731554d110c81d1c985b9cd9995c8819985a5b195960621b60448201526064016101e7565b6102ea826103ec565b6040516001600160a01b038581166024830152604482018590526000917f00000000000000000000000000000000000000000000000000000000000000009091169060640160408051601f198184030181529181526020820180516001600160e01b03166340c10f1960e01b1790525161036491906108d4565b6000604051808303816000865af19150503d80600081146103a1576040519150601f19603f3d011682016040523d82523d6000602084013e6103a6565b606091505b50509050806103e55760405162461bcd60e51b815260206004820152600b60248201526a135a5b9d0819985a5b195960aa1b60448201526064016101e7565b5050505050565b600060646103fb83601e610903565b610405919061092e565b90506000606461041684601e610903565b610420919061092e565b90506000606461043185600f610903565b61043b919061092e565b90506000606461044c86600f610903565b610456919061092e565b90506000606461046787600a610903565b610471919061092e565b60405173de75f5168e33db23fa5601b5fc88545be7b287a460248201526044810187905290915060009073af88d065e77c8cc2239327c5edb3a432268e58319060640160408051601f198184030181529181526020820180516001600160e01b031663a9059cbb60e01b179052516104e991906108d4565b6000604051808303816000865af19150503d8060008114610526576040519150601f19603f3d011682016040523d82523d6000602084013e61052b565b606091505b5050604051732b686a6c1c4b40ffc748b56b6c7a06c49e36116760248201526044810187905290915060009073af88d065e77c8cc2239327c5edb3a432268e58319060640160408051601f198184030181529181526020820180516001600160e01b031663a9059cbb60e01b179052516105a591906108d4565b6000604051808303816000865af19150503d80600081146105e2576040519150601f19603f3d011682016040523d82523d6000602084013e6105e7565b606091505b505060405173d8bb25076e61b5a382e17171b48d8e0952b5b4f360248201526044810187905290915060009073af88d065e77c8cc2239327c5edb3a432268e58319060640160408051601f198184030181529181526020820180516001600160e01b031663a9059cbb60e01b1790525161066191906108d4565b6000604051808303816000865af19150503d806000811461069e576040519150601f19603f3d011682016040523d82523d6000602084013e6106a3565b606091505b505060405173f8c739a101e53f6fe4e24df768be833ceecefa8460248201526044810187905290915060009073af88d065e77c8cc2239327c5edb3a432268e58319060640160408051601f198184030181529181526020820180516001600160e01b031663a9059cbb60e01b1790525161071d91906108d4565b6000604051808303816000865af19150503d806000811461075a576040519150601f19603f3d011682016040523d82523d6000602084013e61075f565b606091505b5050604051738c09e686bdfd283bdf5f6fffc780e62a695014f360248201526044810187905290915060009073af88d065e77c8cc2239327c5edb3a432268e58319060640160408051601f198184030181529181526020820180516001600160e01b031663a9059cbb60e01b179052516107d991906108d4565b6000604051808303816000865af19150503d8060008114610816576040519150601f19603f3d011682016040523d82523d6000602084013e61081b565b606091505b505090508480156108295750835b80156108325750825b801561083b5750815b80156108445750805b6108865760405162461bcd60e51b8152602060048201526013602482015272111a5cdd1c9a589d5d1a5bdb8819985a5b1959606a1b60448201526064016101e7565b5050505050505050505050565b6000806000606084860312156108a857600080fd5b83356001600160a01b03811681146108bf57600080fd5b95602085013595506040909401359392505050565b6000825160005b818110156108f557602081860181015185830152016108db565b506000920191825250919050565b808202811582820484141761092857634e487b7160e01b600052601160045260246000fd5b92915050565b60008261094b57634e487b7160e01b600052601260045260246000fd5b50049056fea2646970667358221220dd8a095928819d82844db693eba779aeb873dc6b46fa2b2d045b4d18b9d1d8f164736f6c634300081c0033","opcodes":"PUSH1 0xA0 PUSH1 0x40 MSTORE CALLVALUE DUP1 ISZERO PUSH1 0xF JUMPI PUSH1 0x0 DUP1 REVERT JUMPDEST POP PUSH1 0x40 MLOAD PUSH2 0xA24 CODESIZE SUB DUP1 PUSH2 0xA24 DUP4 CODECOPY DUP2 ADD PUSH1 0x40 DUP2 SWAP1 MSTORE PUSH1 0x2C SWAP2 PUSH1 0x4E JUMP JUMPDEST PUSH1 0x1 PUSH1 0x1 PUSH1 0xA0 SHL SUB AND PUSH1 0x80 MSTORE PUSH1 0x0 DUP1 SLOAD PUSH1 0x1 PUSH1 0x1 PUSH1 0xA0 SHL SUB NOT AND CALLER OR SWAP1 SSTORE PUSH1 0x7C JUMP JUMPDEST PUSH1 0x0 PUSH1 0x20 DUP3 DUP5 SUB SLT ISZERO PUSH1 0x5F JUMPI PUSH1 0x0 DUP1 REVERT JUMPDEST DUP2 MLOAD PUSH1 0x1 PUSH1 0x1 PUSH1 0xA0 SHL SUB DUP2 AND DUP2 EQ PUSH1 0x75 JUMPI PUSH1 0x0 DUP1 REVERT JUMPDEST SWAP4 SWAP3 POP POP POP JUMP JUMPDEST PUSH1 0x80 MLOAD PUSH2 0x986 PUSH2 0x9E PUSH1 0x0 CODECOPY PUSH1 0x0 DUP2 DUP2 PUSH2 0x125 ADD MSTORE PUSH2 0x309 ADD MSTORE PUSH2 0x986 PUSH1 0x0 RETURN INVALID PUSH1 0x80 PUSH1 0x40 MSTORE CALLVALUE DUP1 ISZERO PUSH2 0x10 JUMPI PUSH1 0x0 DUP1 REVERT JUMPDEST POP PUSH1 0x4 CALLDATASIZE LT PUSH2 0x93 JUMPI PUSH1 0x0 CALLDATALOAD PUSH1 0xE0 SHR DUP1 PUSH4 0x66C9C384 GT PUSH2 0x66 JUMPI DUP1 PUSH4 0x66C9C384 EQ PUSH2 0x120 JUMPI DUP1 PUSH4 0x89A30271 EQ PUSH2 0x147 JUMPI DUP1 PUSH4 0x8DA5CB5B EQ PUSH2 0x162 JUMPI DUP1 PUSH4 0xBC56D5B4 EQ PUSH2 0x175 JUMPI DUP1 PUSH4 0xE2D1E570 EQ PUSH2 0x18A JUMPI PUSH1 0x0 DUP1 REVERT JUMPDEST DUP1 PUSH4 0xA1234B5 EQ PUSH2 0x98 JUMPI DUP1 PUSH4 0x14627834 EQ PUSH2 0xCF JUMPI DUP1 PUSH4 0x2D2C5565 EQ PUSH2 0xEA JUMPI DUP1 PUSH4 0x661E7AC4 EQ PUSH2 0x105 JUMPI JUMPDEST PUSH1 0x0 DUP1 REVERT JUMPDEST PUSH2 0xB3 PUSH20 0xF8C739A101E53F6FE4E24DF768BE833CEECEFA84 DUP2 JUMP JUMPDEST PUSH1 0x40 MLOAD PUSH1 0x1 PUSH1 0x1 PUSH1 0xA0 SHL SUB SWAP1 SWAP2 AND DUP2 MSTORE PUSH1 0x20 ADD PUSH1 0x40 MLOAD DUP1 SWAP2 SUB SWAP1 RETURN JUMPDEST PUSH2 0xB3 PUSH20 0x8C09E686BDFD283BDF5F6FFFC780E62A695014F3 DUP2 JUMP JUMPDEST PUSH2 0xB3 PUSH20 0x2B686A6C1C4B40FFC748B56B6C7A06C49E361167 DUP2 JUMP JUMPDEST PUSH2 0xB3 PUSH20 0xD8BB25076E61B5A382E17171B48D8E0952B5B4F3 DUP2 JUMP JUMPDEST PUSH2 0xB3 PUSH32 0x0 DUP2 JUMP JUMPDEST PUSH2 0xB3 PUSH20 0xAF88D065E77C8CC2239327C5EDB3A432268E5831 DUP2 JUMP JUMPDEST PUSH1 0x0 SLOAD PUSH2 0xB3 SWAP1 PUSH1 0x1 PUSH1 0x1 PUSH1 0xA0 SHL SUB AND DUP2 JUMP JUMPDEST PUSH2 0x188 PUSH2 0x183 CALLDATASIZE PUSH1 0x4 PUSH2 0x893 JUMP JUMPDEST PUSH2 0x1A5 JUMP JUMPDEST STOP JUMPDEST PUSH2 0xB3 PUSH20 0xDE75F5168E33DB23FA5601B5FC88545BE7B287A4 DUP2 JUMP JUMPDEST PUSH1 0x0 SLOAD PUSH1 0x1 PUSH1 0x1 PUSH1 0xA0 SHL SUB AND CALLER EQ PUSH2 0x1F0 JUMPI PUSH1 0x40 MLOAD PUSH3 0x461BCD PUSH1 0xE5 SHL DUP2 MSTORE PUSH1 0x20 PUSH1 0x4 DUP3 ADD MSTORE PUSH1 0x9 PUSH1 0x24 DUP3 ADD MSTORE PUSH9 0x2737BA1037BBB732B9 PUSH1 0xB9 SHL PUSH1 0x44 DUP3 ADD MSTORE PUSH1 0x64 ADD JUMPDEST PUSH1 0x40 MLOAD DUP1 SWAP2 SUB SWAP1 REVERT JUMPDEST PUSH1 0x40 MLOAD CALLER PUSH1 0x24 DUP3 ADD MSTORE ADDRESS PUSH1 0x44 DUP3 ADD MSTORE PUSH1 0x64 DUP2 ADD DUP3 SWAP1 MSTORE PUSH1 0x0 SWAP1 PUSH20 0xAF88D065E77C8CC2239327C5EDB3A432268E5831 SWAP1 PUSH1 0x84 ADD PUSH1 0x40 DUP1 MLOAD PUSH1 0x1F NOT DUP2 DUP5 SUB ADD DUP2 MSTORE SWAP2 DUP2 MSTORE PUSH1 0x20 DUP3 ADD DUP1 MLOAD PUSH1 0x1 PUSH1 0x1 PUSH1 0xE0 SHL SUB AND PUSH4 0x23B872DD PUSH1 0xE0 SHL OR SWAP1 MSTORE MLOAD PUSH2 0x257 SWAP2 SWAP1 PUSH2 0x8D4 JUMP JUMPDEST PUSH1 0x0 PUSH1 0x40 MLOAD DUP1 DUP4 SUB DUP2 PUSH1 0x0 DUP7 GAS CALL SWAP2 POP POP RETURNDATASIZE DUP1 PUSH1 0x0 DUP2 EQ PUSH2 0x294 JUMPI PUSH1 0x40 MLOAD SWAP2 POP PUSH1 0x1F NOT PUSH1 0x3F RETURNDATASIZE ADD AND DUP3 ADD PUSH1 0x40 MSTORE RETURNDATASIZE DUP3 MSTORE RETURNDATASIZE PUSH1 0x0 PUSH1 0x20 DUP5 ADD RETURNDATACOPY PUSH2 0x299 JUMP JUMPDEST PUSH1 0x60 SWAP2 POP JUMPDEST POP POP SWAP1 POP DUP1 PUSH2 0x2E1 JUMPI PUSH1 0x40 MLOAD PUSH3 0x461BCD PUSH1 0xE5 SHL DUP2 MSTORE PUSH1 0x20 PUSH1 0x4 DUP3 ADD MSTORE PUSH1 0x14 PUSH1 0x24 DUP3 ADD MSTORE PUSH20 0x1554D110C81D1C985B9CD9995C8819985A5B1959 PUSH1 0x62 SHL PUSH1 0x44 DUP3 ADD MSTORE PUSH1 0x64 ADD PUSH2 0x1E7 JUMP JUMPDEST PUSH2 0x2EA DUP3 PUSH2 0x3EC JUMP JUMPDEST PUSH1 0x40 MLOAD PUSH1 0x1 PUSH1 0x1 PUSH1 0xA0 SHL SUB DUP6 DUP2 AND PUSH1 0x24 DUP4 ADD MSTORE PUSH1 0x44 DUP3 ADD DUP6 SWAP1 MSTORE PUSH1 0x0 SWAP2 PUSH32 0x0 SWAP1 SWAP2 AND SWAP1 PUSH1 0x64 ADD PUSH1 0x40 DUP1 MLOAD PUSH1 0x1F NOT DUP2 DUP5 SUB ADD DUP2 MSTORE SWAP2 DUP2 MSTORE PUSH1 0x20 DUP3 ADD DUP1 MLOAD PUSH1 0x1 PUSH1 0x1 PUSH1 0xE0 SHL SUB AND PUSH4 0x40C10F19 PUSH1 0xE0 SHL OR SWAP1 MSTORE MLOAD PUSH2 0x364 SWAP2 SWAP1 PUSH2 0x8D4 JUMP JUMPDEST PUSH1 0x0 PUSH1 0x40 MLOAD DUP1 DUP4 SUB DUP2 PUSH1 0x0 DUP7 GAS CALL SWAP2 POP POP RETURNDATASIZE DUP1 PUSH1 0x0 DUP2 EQ PUSH2 0x3A1 JUMPI PUSH1 0x40 MLOAD SWAP2 POP PUSH1 0x1F NOT PUSH1 0x3F RETURNDATASIZE ADD AND DUP3 ADD PUSH1 0x40 MSTORE RETURNDATASIZE DUP3 MSTORE RETURNDATASIZE PUSH1 0x0 PUSH1 0x20 DUP5 ADD RETURNDATACOPY PUSH2 0x3A6 JUMP JUMPDEST PUSH1 0x60 SWAP2 POP JUMPDEST POP POP SWAP1 POP DUP1 PUSH2 0x3E5 JUMPI PUSH1 0x40 MLOAD PUSH3 0x461BCD PUSH1 0xE5 SHL DUP2 MSTORE PUSH1 0x20 PUSH1 0x4 DUP3 ADD MSTORE PUSH1 0xB PUSH1 0x24 DUP3 ADD MSTORE PUSH11 0x135A5B9D0819985A5B1959 PUSH1 0xAA SHL PUSH1 0x44 DUP3 ADD MSTORE PUSH1 0x64 ADD PUSH2 0x1E7 JUMP JUMPDEST POP POP POP POP POP JUMP JUMPDEST PUSH1 0x0 PUSH1 0x64 PUSH2 0x3FB DUP4 PUSH1 0x1E PUSH2 0x903 JUMP JUMPDEST PUSH2 0x405 SWAP2 SWAP1 PUSH2 0x92E JUMP JUMPDEST SWAP1 POP PUSH1 0x0 PUSH1 0x64 PUSH2 0x416 DUP5 PUSH1 0x1E PUSH2 0x903 JUMP JUMPDEST PUSH2 0x420 SWAP2 SWAP1 PUSH2 0x92E JUMP JUMPDEST SWAP1 POP PUSH1 0x0 PUSH1 0x64 PUSH2 0x431 DUP6 PUSH1 0xF PUSH2 0x903 JUMP JUMPDEST PUSH2 0x43B SWAP2 SWAP1 PUSH2 0x92E JUMP JUMPDEST SWAP1 POP PUSH1 0x0 PUSH1 0x64 PUSH2 0x44C DUP7 PUSH1 0xF PUSH2 0x903 JUMP JUMPDEST PUSH2 0x456 SWAP2 SWAP1 PUSH2 0x92E JUMP JUMPDEST SWAP1 POP PUSH1 0x0 PUSH1 0x64 PUSH2 0x467 DUP8 PUSH1 0xA PUSH2 0x903 JUMP JUMPDEST PUSH2 0x471 SWAP2 SWAP1 PUSH2 0x92E JUMP JUMPDEST PUSH1 0x40 MLOAD PUSH20 0xDE75F5168E33DB23FA5601B5FC88545BE7B287A4 PUSH1 0x24 DUP3 ADD MSTORE PUSH1 0x44 DUP2 ADD DUP8 SWAP1 MSTORE SWAP1 SWAP2 POP PUSH1 0x0 SWAP1 PUSH20 0xAF88D065E77C8CC2239327C5EDB3A432268E5831 SWAP1 PUSH1 0x64 ADD PUSH1 0x40 DUP1 MLOAD PUSH1 0x1F NOT DUP2 DUP5 SUB ADD DUP2 MSTORE SWAP2 DUP2 MSTORE PUSH1 0x20 DUP3 ADD DUP1 MLOAD PUSH1 0x1 PUSH1 0x1 PUSH1 0xE0 SHL SUB AND PUSH4 0xA9059CBB PUSH1 0xE0 SHL OR SWAP1 MSTORE MLOAD PUSH2 0x4E9 SWAP2 SWAP1 PUSH2 0x8D4 JUMP JUMPDEST PUSH1 0x0 PUSH1 0x40 MLOAD DUP1 DUP4 SUB DUP2 PUSH1 0x0 DUP7 GAS CALL SWAP2 POP POP RETURNDATASIZE DUP1 PUSH1 0x0 DUP2 EQ PUSH2 0x526 JUMPI PUSH1 0x40 MLOAD SWAP2 POP PUSH1 0x1F NOT PUSH1 0x3F RETURNDATASIZE ADD AND DUP3 ADD PUSH1 0x40 MSTORE RETURNDATASIZE DUP3 MSTORE RETURNDATASIZE PUSH1 0x0 PUSH1 0x20 DUP5 ADD RETURNDATACOPY PUSH2 0x52B JUMP JUMPDEST PUSH1 0x60 SWAP2 POP JUMPDEST POP POP PUSH1 0x40 MLOAD PUSH20 0x2B686A6C1C4B40FFC748B56B6C7A06C49E361167 PUSH1 0x24 DUP3 ADD MSTORE PUSH1 0x44 DUP2 ADD DUP8 SWAP1 MSTORE SWAP1 SWAP2 POP PUSH1 0x0 SWAP1 PUSH20 0xAF88D065E77C8CC2239327C5EDB3A432268E5831 SWAP1 PUSH1 0x64 ADD PUSH1 0x40 DUP1 MLOAD PUSH1 0x1F NOT DUP2 DUP5 SUB ADD DUP2 MSTORE SWAP2 DUP2 MSTORE PUSH1 0x20 DUP3 ADD DUP1 MLOAD PUSH1 0x1 PUSH1 0x1 PUSH1 0xE0 SHL SUB AND PUSH4 0xA9059CBB PUSH1 0xE0 SHL OR SWAP1 MSTORE MLOAD PUSH2 0x5A5 SWAP2 SWAP1 PUSH2 0x8D4 JUMP JUMPDEST PUSH1 0x0 PUSH1 0x40 MLOAD DUP1 DUP4 SUB DUP2 PUSH1 0x0 DUP7 GAS CALL SWAP2 POP POP RETURNDATASIZE DUP1 PUSH1 0x0 DUP2 EQ PUSH2 0x5E2 JUMPI PUSH1 0x40 MLOAD SWAP2 POP PUSH1 0x1F NOT PUSH1 0x3F RETURNDATASIZE ADD AND DUP3 ADD PUSH1 0x40 MSTORE RETURNDATASIZE DUP3 MSTORE RETURNDATASIZE PUSH1 0x0 PUSH1 0x20 DUP5 ADD RETURNDATACOPY PUSH2 0x5E7 JUMP JUMPDEST PUSH1 0x60 SWAP2 POP JUMPDEST POP POP PUSH1 0x40 MLOAD PUSH20 0xD8BB25076E61B5A382E17171B48D8E0952B5B4F3 PUSH1 0x24 DUP3 ADD MSTORE PUSH1 0x44 DUP2 ADD DUP8 SWAP1 MSTORE SWAP1 SWAP2 POP PUSH1 0x0 SWAP1 PUSH20 0xAF88D065E77C8CC2239327C5EDB3A432268E5831 SWAP1 PUSH1 0x64 ADD PUSH1 0x40 DUP1 MLOAD PUSH1 0x1F NOT DUP2 DUP5 SUB ADD DUP2 MSTORE SWAP2 DUP2 MSTORE PUSH1 0x20 DUP3 ADD DUP1 MLOAD PUSH1 0x1 PUSH1 0x1 PUSH1 0xE0 SHL SUB AND PUSH4 0xA9059CBB PUSH1 0xE0 SHL OR SWAP1 MSTORE MLOAD PUSH2 0x661 SWAP2 SWAP1 PUSH2 0x8D4 JUMP JUMPDEST PUSH1 0x0 PUSH1 0x40 MLOAD DUP1 DUP4 SUB DUP2 PUSH1 0x0 DUP7 GAS CALL SWAP2 POP POP RETURNDATASIZE DUP1 PUSH1 0x0 DUP2 EQ PUSH2 0x69E JUMPI PUSH1 0x40 MLOAD SWAP2 POP PUSH1 0x1F NOT PUSH1 0x3F RETURNDATASIZE ADD AND DUP3 ADD PUSH1 0x40 MSTORE RETURNDATASIZE DUP3 MSTORE RETURNDATASIZE PUSH1 0x0 PUSH1 0x20 DUP5 ADD RETURNDATACOPY PUSH2 0x6A3 JUMP JUMPDEST PUSH1 0x60 SWAP2 POP JUMPDEST POP POP PUSH1 0x40 MLOAD PUSH20 0xF8C739A101E53F6FE4E24DF768BE833CEECEFA84 PUSH1 0x24 DUP3 ADD MSTORE PUSH1 0x44 DUP2 ADD DUP8 SWAP1 MSTORE SWAP1 SWAP2 POP PUSH1 0x0 SWAP1 PUSH20 0xAF88D065E77C8CC2239327C5EDB3A432268E5831 SWAP1 PUSH1 0x64 ADD PUSH1 0x40 DUP1 MLOAD PUSH1 0x1F NOT DUP2 DUP5 SUB ADD DUP2 MSTORE SWAP2 DUP2 MSTORE PUSH1 0x20 DUP3 ADD DUP1 MLOAD PUSH1 0x1 PUSH1 0x1 PUSH1 0xE0 SHL SUB AND PUSH4 0xA9059CBB PUSH1 0xE0 SHL OR SWAP1 MSTORE MLOAD PUSH2 0x71D SWAP2 SWAP1 PUSH2 0x8D4 JUMP JUMPDEST PUSH1 0x0 PUSH1 0x40 MLOAD DUP1 DUP4 SUB DUP2 PUSH1 0x0 DUP7 GAS CALL SWAP2 POP POP RETURNDATASIZE DUP1 PUSH1 0x0 DUP2 EQ PUSH2 0x75A JUMPI PUSH1 0x40 MLOAD SWAP2 POP PUSH1 0x1F NOT PUSH1 0x3F RETURNDATASIZE ADD AND DUP3 ADD PUSH1 0x40 MSTORE RETURNDATASIZE DUP3 MSTORE RETURNDATASIZE PUSH1 0x0 PUSH1 0x20 DUP5 ADD RETURNDATACOPY PUSH2 0x75F JUMP JUMPDEST PUSH1 0x60 SWAP2 POP JUMPDEST POP POP PUSH1 0x40 MLOAD PUSH20 0x8C09E686BDFD283BDF5F6FFFC780E62A695014F3 PUSH1 0x24 DUP3 ADD MSTORE PUSH1 0x44 DUP2 ADD DUP8 SWAP1 MSTORE SWAP1 SWAP2 POP PUSH1 0x0 SWAP1 PUSH20 0xAF88D065E77C8CC2239327C5EDB3A432268E5831 SWAP1 PUSH1 0x64 ADD PUSH1 0x40 DUP1 MLOAD PUSH1 0x1F NOT DUP2 DUP5 SUB ADD DUP2 MSTORE SWAP2 DUP2 MSTORE PUSH1 0x20 DUP3 ADD DUP1 MLOAD PUSH1 0x1 PUSH1 0x1 PUSH1 0xE0 SHL SUB AND PUSH4 0xA9059CBB PUSH1 0xE0 SHL OR SWAP1 MSTORE MLOAD PUSH2 0x7D9 SWAP2 SWAP1 PUSH2 0x8D4 JUMP JUMPDEST PUSH1 0x0 PUSH1 0x40 MLOAD DUP1 DUP4 SUB DUP2 PUSH1 0x0 DUP7 GAS CALL SWAP2 POP POP RETURNDATASIZE DUP1 PUSH1 0x0 DUP2 EQ PUSH2 0x816 JUMPI PUSH1 0x40 MLOAD SWAP2 POP PUSH1 0x1F NOT PUSH1 0x3F RETURNDATASIZE ADD AND DUP3 ADD PUSH1 0x40 MSTORE RETURNDATASIZE DUP3 MSTORE RETURNDATASIZE PUSH1 0x0 PUSH1 0x20 DUP5 ADD RETURNDATACOPY PUSH2 0x81B JUMP JUMPDEST PUSH1 0x60 SWAP2 POP JUMPDEST POP POP SWAP1 POP DUP5 DUP1 ISZERO PUSH2 0x829 JUMPI POP DUP4 JUMPDEST DUP1 ISZERO PUSH2 0x832 JUMPI POP DUP3 JUMPDEST DUP1 ISZERO PUSH2 0x83B JUMPI POP DUP2 JUMPDEST DUP1 ISZERO PUSH2 0x844 JUMPI POP DUP1 JUMPDEST PUSH2 0x886 JUMPI PUSH1 0x40 MLOAD PUSH3 0x461BCD PUSH1 0xE5 SHL DUP2 MSTORE PUSH1 0x20 PUSH1 0x4 DUP3 ADD MSTORE PUSH1 0x13 PUSH1 0x24 DUP3 ADD MSTORE PUSH19 0x111A5CDD1C9A589D5D1A5BDB8819985A5B1959 PUSH1 0x6A SHL PUSH1 0x44 DUP3 ADD MSTORE PUSH1 0x64 ADD PUSH2 0x1E7 JUMP JUMPDEST POP POP POP POP POP POP POP POP POP POP POP JUMP JUMPDEST PUSH1 0x0 DUP1 PUSH1 0x0 PUSH1 0x60 DUP5 DUP7 SUB SLT ISZERO PUSH2 0x8A8 JUMPI PUSH1 0x0 DUP1 REVERT JUMPDEST DUP4 CALLDATALOAD PUSH1 0x1 PUSH1 0x1 PUSH1 0xA0 SHL SUB DUP2 AND DUP2 EQ PUSH2 0x8BF JUMPI PUSH1 0x0 DUP1 REVERT JUMPDEST SWAP6 PUSH1 0x20 DUP6 ADD CALLDATALOAD SWAP6 POP PUSH1 0x40 SWAP1 SWAP5 ADD CALLDATALOAD SWAP4 SWAP3 POP POP POP JUMP JUMPDEST PUSH1 0x0 DUP3 MLOAD PUSH1 0x0 JUMPDEST DUP2 DUP2 LT ISZERO PUSH2 0x8F5 JUMPI PUSH1 0x20 DUP2 DUP7 ADD DUP2 ADD MLOAD DUP6 DUP4 ADD MSTORE ADD PUSH2 0x8DB JUMP JUMPDEST POP PUSH1 0x0 SWAP3 ADD SWAP2 DUP3 MSTORE POP SWAP2 SWAP1 POP JUMP JUMPDEST DUP1 DUP3 MUL DUP2 ISZERO DUP3 DUP3 DIV DUP5 EQ OR PUSH2 0x928 JUMPI PUSH4 0x4E487B71 PUSH1 0xE0 SHL PUSH1 0x0 MSTORE PUSH1 0x11 PUSH1 0x4 MSTORE PUSH1 0x24 PUSH1 0x0 REVERT JUMPDEST SWAP3 SWAP2 POP POP JUMP JUMPDEST PUSH1 0x0 DUP3 PUSH2 0x94B JUMPI PUSH4 0x4E487B71 PUSH1 0xE0 SHL PUSH1 0x0 MSTORE PUSH1 0x12 PUSH1 0x4 MSTORE PUSH1 0x24 PUSH1 0x0 REVERT JUMPDEST POP DIV SWAP1 JUMP INVALID LOG2 PUSH5 0x6970667358 0x22 SLT KECCAK256 0xDD DUP11 MULMOD MSIZE 0x28 DUP2 SWAP14 DUP3 DUP5 0x4D 0xB6 SWAP4 0xEB 0xA7 PUSH26 0xAEB873DC6B46FA2B2D045B4D18B9D1D8F164736F6C634300081C STOP CALLER "},"methodIdentifiers":{"COMMUNITY_PROGRAMS()":"0a1234b5","DEVELOPMENT()":"661e7ac4","GOVERNANCE()":"14627834","HARMONY_FOR_HOPE()":"e2d1e570","TREASURY()":"2d2c5565","USDC()":"89a30271","mountainSharesToken()":"66c9c384","owner()":"8da5cb5b","processPayment(address,uint256,uint256)":"bc56d5b4"}}}}}