{
  "_format": "hh-sol-artifact-1",
  "contractName": "CompleteUSDCPaymentProcessor",
  "sourceName": "contracts/CompleteUSDCPaymentProcessor.sol",
  "abi": [
    {
      "inputs": [
        {
          "internalType": "address",
          "name": "_mountainSharesToken",
          "type": "address"
        },
        {
          "internalType": "address",
          "name": "_governanceContract",
          "type": "address"
        },
        {
          "internalType": "address",
          "name": "_settlementTreasury",
          "type": "address"
        }
      ],
      "stateMutability": "nonpayable",
      "type": "constructor"
    },
    {
      "anonymous": false,
      "inputs": [
        {
          "indexed": true,
          "internalType": "address",
          "name": "customer",
          "type": "address"
        },
        {
          "indexed": false,
          "internalType": "uint256",
          "name": "tokenAmount",
          "type": "uint256"
        },
        {
          "indexed": false,
          "internalType": "uint256",
          "name": "purchaseAmount",
          "type": "uint256"
        },
        {
          "indexed": false,
          "internalType": "uint256",
          "name": "governanceFee",
          "type": "uint256"
        },
        {
          "indexed": false,
          "internalType": "bool",
          "name": "settlementVerified",
          "type": "bool"
        }
      ],
      "name": "CompletePaymentProcessed",
      "type": "event"
    },
    {
      "inputs": [],
      "name": "USDC",
      "outputs": [
        {
          "internalType": "address",
          "name": "",
          "type": "address"
        }
      ],
      "stateMutability": "view",
      "type": "function"
    },
    {
      "inputs": [],
      "name": "governanceContract",
      "outputs": [
        {
          "internalType": "contract IGovernanceContract",
          "name": "",
          "type": "address"
        }
      ],
      "stateMutability": "view",
      "type": "function"
    },
    {
      "inputs": [],
      "name": "mountainSharesToken",
      "outputs": [
        {
          "internalType": "address",
          "name": "",
          "type": "address"
        }
      ],
      "stateMutability": "view",
      "type": "function"
    },
    {
      "inputs": [],
      "name": "owner",
      "outputs": [
        {
          "internalType": "address",
          "name": "",
          "type": "address"
        }
      ],
      "stateMutability": "view",
      "type": "function"
    },
    {
      "inputs": [
        {
          "internalType": "address",
          "name": "customer",
          "type": "address"
        },
        {
          "internalType": "uint256",
          "name": "tokenAmount",
          "type": "uint256"
        },
        {
          "internalType": "uint256",
          "name": "purchaseAmount",
          "type": "uint256"
        },
        {
          "internalType": "uint256",
          "name": "governanceFee",
          "type": "uint256"
        }
      ],
      "name": "processCompletePayment",
      "outputs": [],
      "stateMutability": "nonpayable",
      "type": "function"
    },
    {
      "inputs": [],
      "name": "settlementTreasury",
      "outputs": [
        {
          "internalType": "contract IUSDCSettlementTreasury",
          "name": "",
          "type": "address"
        }
      ],
      "stateMutability": "view",
      "type": "function"
    }
  ],
  "bytecode": "0x60e060405234801561001057600080fd5b50604051610aff380380610aff83398101604081905261002f9161007a565b6001600160a01b0392831660805290821660a0521660c052600080546001600160a01b031916331790556100bd565b80516001600160a01b038116811461007557600080fd5b919050565b60008060006060848603121561008f57600080fd5b6100988461005e565b92506100a66020850161005e565b91506100b46040850161005e565b90509250925092565b60805160a05160c0516109f261010d60003960008181606c015281816102f901528181610506015261066b015260008181610119015281816106ca01526108380152600060c401526109f26000f3fe608060405234801561001057600080fd5b50600436106100625760003560e01c806352ba740914610067578063668d3306146100aa57806366c9c384146100bf57806389a30271146100e65780638da5cb5b14610101578063b172b22214610114575b600080fd5b61008e7f000000000000000000000000000000000000000000000000000000000000000081565b6040516001600160a01b03909116815260200160405180910390f35b6100bd6100b83660046108f6565b61013b565b005b61008e7f000000000000000000000000000000000000000000000000000000000000000081565b61008e73af88d065e77c8cc2239327c5edb3a432268e583181565b60005461008e906001600160a01b031681565b61008e7f000000000000000000000000000000000000000000000000000000000000000081565b6000546001600160a01b031633146101865760405162461bcd60e51b81526020600482015260096024820152682737ba1037bbb732b960b91b60448201526064015b60405180910390fd5b6001600160a01b0384166101dc5760405162461bcd60e51b815260206004820152601860248201527f496e76616c696420637573746f6d657220616464726573730000000000000000604482015260640161017d565b600083116102385760405162461bcd60e51b815260206004820152602360248201527f546f6b656e20616d6f756e74206d75737420626520677265617465722074686160448201526206e20360ec1b606482015260840161017d565b600082116102975760405162461bcd60e51b815260206004820152602660248201527f507572636861736520616d6f756e74206d75737420626520677265617465722060448201526507468616e20360d41b606482015260840161017d565b600081116102f55760405162461bcd60e51b815260206004820152602560248201527f476f7665726e616e636520666565206d75737420626520677265617465722074604482015264068616e20360dc1b606482015260840161017d565b60007f00000000000000000000000000000000000000000000000000000000000000006001600160a01b031663970d34486040518163ffffffff1660e01b81526004016020604051808303816000875af1158015610357573d6000803e3d6000fd5b505050506040513d601f19601f8201168201806040525081019061037b919061093d565b9050806103da5760405162461bcd60e51b815260206004820152602760248201527f536574746c656d656e7420747265617375727920766572696669636174696f6e6044820152660819985a5b195960ca1b606482015260840161017d565b60006103e68385610966565b60405133602482015230604482015260648101829052909150600090819073af88d065e77c8cc2239327c5edb3a432268e58319060840160408051601f198184030181529181526020820180516001600160e01b03166323b872dd60e01b17905251610452919061098d565b6000604051808303816000865af19150503d806000811461048f576040519150601f19603f3d011682016040523d82523d6000602084013e610494565b606091505b50915091508180156104be5750805115806104be5750808060200190518101906104be919061093d565b6105015760405162461bcd60e51b81526020600482015260146024820152731554d110c81d1c985b9cd9995c8819985a5b195960621b604482015260640161017d565b6040517f00000000000000000000000000000000000000000000000000000000000000006001600160a01b0316602482015260448101879052600090819073af88d065e77c8cc2239327c5edb3a432268e58319060640160408051601f198184030181529181526020820180516001600160e01b031663095ea7b360e01b1790525161058d919061098d565b6000604051808303816000865af19150503d80600081146105ca576040519150601f19603f3d011682016040523d82523d6000602084013e6105cf565b606091505b50915091508180156105f95750805115806105f95750808060200190518101906105f9919061093d565b6106455760405162461bcd60e51b815260206004820152601a60248201527f536574746c656d656e7420617070726f76616c206661696c6564000000000000604482015260640161017d565b604051631a981bc760e31b81526001600160a01b038b81166004830152602482018a90527f0000000000000000000000000000000000000000000000000000000000000000169063d4c0de3890604401600060405180830381600087803b1580156106af57600080fd5b505af11580156106c3573d6000803e3d6000fd5b50506040517f00000000000000000000000000000000000000000000000000000000000000006001600160a01b03166024820152604481018a90526000925082915073af88d065e77c8cc2239327c5edb3a432268e58319060640160408051601f198184030181529181526020820180516001600160e01b031663095ea7b360e01b17905251610753919061098d565b6000604051808303816000865af19150503d8060008114610790576040519150601f19603f3d011682016040523d82523d6000602084013e610795565b606091505b50915091508180156107bf5750805115806107bf5750808060200190518101906107bf919061093d565b61080b5760405162461bcd60e51b815260206004820152601a60248201527f476f7665726e616e636520617070726f76616c206661696c6564000000000000604482015260640161017d565b604051632f15b56d60e21b81526001600160a01b038d81166004830152602482018d9052604482018b90527f0000000000000000000000000000000000000000000000000000000000000000169063bc56d5b490606401600060405180830381600087803b15801561087c57600080fd5b505af1158015610890573d6000803e3d6000fd5b5050604080518e8152602081018e90529081018c90528a151560608201526001600160a01b038f1692507f8d4ff410805ae8d8e1ed3d3503002b49938bd5547a11e5de1694ddd9b5c07e03915060800160405180910390a2505050505050505050505050565b6000806000806080858703121561090c57600080fd5b84356001600160a01b038116811461092357600080fd5b966020860135965060408601359560600135945092505050565b60006020828403121561094f57600080fd5b8151801515811461095f57600080fd5b9392505050565b8082018082111561098757634e487b7160e01b600052601160045260246000fd5b92915050565b6000825160005b818110156109ae5760208186018101518583015201610994565b50600092019182525091905056fea2646970667358221220546014dd309e516ea59f548a7ce784b5dda616644884e56dfc8097e2a9762a4964736f6c634300081c0033",
  "linkReferences": {},
  "deployedLinkReferences": {}
}